{
  "contractName": "Bridge",
  "abi": [
    {
      "inputs": [
        {
          "internalType": "uint256",
          "name": "crossFee_",
          "type": "uint256"
        },
        {
          "internalType": "address",
          "name": "tokenAddress_",
          "type": "address"
        }
      ],
      "stateMutability": "nonpayable",
      "type": "constructor"
    },
    {
      "anonymous": false,
      "inputs": [
        {
          "indexed": false,
          "internalType": "address",
          "name": "from",
          "type": "address"
        },
        {
          "indexed": false,
          "internalType": "address",
          "name": "to",
          "type": "address"
        },
        {
          "indexed": false,
          "internalType": "uint256",
          "name": "amount",
          "type": "uint256"
        },
        {
          "indexed": false,
          "internalType": "uint256",
          "name": "date",
          "type": "uint256"
        },
        {
          "indexed": false,
          "internalType": "uint256",
          "name": "nonce",
          "type": "uint256"
        },
        {
          "indexed": true,
          "internalType": "enum Bridge.Step",
          "name": "step",
          "type": "uint8"
        }
      ],
      "name": "Transfer",
      "type": "event"
    },
    {
      "inputs": [],
      "name": "owner",
      "outputs": [
        {
          "internalType": "address",
          "name": "",
          "type": "address"
        }
      ],
      "stateMutability": "view",
      "type": "function",
      "constant": true
    },
    {
      "inputs": [
        {
          "internalType": "address",
          "name": "",
          "type": "address"
        },
        {
          "internalType": "uint256",
          "name": "",
          "type": "uint256"
        }
      ],
      "name": "recvNonces",
      "outputs": [
        {
          "internalType": "bool",
          "name": "",
          "type": "bool"
        }
      ],
      "stateMutability": "view",
      "type": "function",
      "constant": true
    },
    {
      "inputs": [
        {
          "internalType": "address",
          "name": "",
          "type": "address"
        },
        {
          "internalType": "uint256",
          "name": "",
          "type": "uint256"
        }
      ],
      "name": "sendNonces",
      "outputs": [
        {
          "internalType": "bool",
          "name": "",
          "type": "bool"
        }
      ],
      "stateMutability": "view",
      "type": "function",
      "constant": true
    },
    {
      "inputs": [
        {
          "internalType": "address",
          "name": "recipient",
          "type": "address"
        },
        {
          "internalType": "uint256",
          "name": "tokenAmount",
          "type": "uint256"
        },
        {
          "internalType": "uint256",
          "name": "nonce",
          "type": "uint256"
        }
      ],
      "name": "crossSend",
      "outputs": [],
      "stateMutability": "payable",
      "type": "function",
      "payable": true
    },
    {
      "inputs": [
        {
          "internalType": "address",
          "name": "sender",
          "type": "address"
        },
        {
          "internalType": "address",
          "name": "recipient",
          "type": "address"
        },
        {
          "internalType": "uint256",
          "name": "tokenAmount",
          "type": "uint256"
        },
        {
          "internalType": "uint256",
          "name": "nonce",
          "type": "uint256"
        }
      ],
      "name": "crossRecv",
      "outputs": [],
      "stateMutability": "nonpayable",
      "type": "function"
    },
    {
      "inputs": [],
      "name": "withdraw",
      "outputs": [],
      "stateMutability": "nonpayable",
      "type": "function"
    },
    {
      "inputs": [
        {
          "internalType": "uint256",
          "name": "fee",
          "type": "uint256"
        }
      ],
      "name": "setFee",
      "outputs": [],
      "stateMutability": "nonpayable",
      "type": "function"
    },
    {
      "inputs": [],
      "name": "getFee",
      "outputs": [
        {
          "internalType": "uint256",
          "name": "",
          "type": "uint256"
        }
      ],
      "stateMutability": "view",
      "type": "function",
      "constant": true
    },
    {
      "inputs": [
        {
          "internalType": "address",
          "name": "owner_",
          "type": "address"
        }
      ],
      "name": "setOwner",
      "outputs": [],
      "stateMutability": "nonpayable",
      "type": "function"
    }
  ],
  "bytecode": "0x608060405260016002553480156200001657600080fd5b50604051620011b7380380620011b783398181016040528101906200003c919062000171565b336000806101000a81548173ffffffffffffffffffffffffffffffffffffffff021916908373ffffffffffffffffffffffffffffffffffffffff1602179055508160028190555080600160006101000a81548173ffffffffffffffffffffffffffffffffffffffff021916908373ffffffffffffffffffffffffffffffffffffffff1602179055505050620001b8565b600080fd5b6000819050919050565b620000e681620000d1565b8114620000f257600080fd5b50565b6000815190506200010681620000db565b92915050565b600073ffffffffffffffffffffffffffffffffffffffff82169050919050565b600062000139826200010c565b9050919050565b6200014b816200012c565b81146200015757600080fd5b50565b6000815190506200016b8162000140565b92915050565b600080604083850312156200018b576200018a620000cc565b5b60006200019b85828601620000f5565b9250506020620001ae858286016200015a565b9150509250929050565b610fef80620001c86000396000f3fe6080604052600436106100865760003560e01c80636e956fea116100595780636e956fea14610131578063809b42211461015a5780638da5cb5b14610176578063ced72f87146101a1578063f454c662146101cc57610086565b806313af40351461008b5780633ccfd60b146100b45780635a99d71a146100cb57806369fe0e2d14610108575b600080fd5b34801561009757600080fd5b506100b260048036038101906100ad9190610a8c565b610209565b005b3480156100c057600080fd5b506100c9610314565b005b3480156100d757600080fd5b506100f260048036038101906100ed9190610aef565b610442565b6040516100ff9190610b4a565b60405180910390f35b34801561011457600080fd5b5061012f600480360381019061012a9190610b65565b610471565b005b34801561013d57600080fd5b5061015860048036038101906101539190610b92565b6104d3565b005b610174600480360381019061016f9190610bf9565b610759565b005b34801561018257600080fd5b5061018b6109cc565b6040516101989190610c5b565b60405180910390f35b3480156101ad57600080fd5b506101b66109f0565b6040516101c39190610c85565b60405180910390f35b3480156101d857600080fd5b506101f360048036038101906101ee9190610aef565b6109fa565b6040516102009190610b4a565b60405180910390f35b60008054906101000a900473ffffffffffffffffffffffffffffffffffffffff1673ffffffffffffffffffffffffffffffffffffffff163373ffffffffffffffffffffffffffffffffffffffff161461026157600080fd5b600073ffffffffffffffffffffffffffffffffffffffff168173ffffffffffffffffffffffffffffffffffffffff1614156102d1576040517f08c379a00000000000000000000000000000000000000000000000000000000081526004016102c890610cfd565b60405180910390fd5b806000806101000a81548173ffffffffffffffffffffffffffffffffffffffff021916908373ffffffffffffffffffffffffffffffffffffffff16021790555050565b60008054906101000a900473ffffffffffffffffffffffffffffffffffffffff1673ffffffffffffffffffffffffffffffffffffffff163373ffffffffffffffffffffffffffffffffffffffff161461036c57600080fd5b600047905060008060009054906101000a900473ffffffffffffffffffffffffffffffffffffffff1673ffffffffffffffffffffffffffffffffffffffff16826040516103b890610d4e565b60006040518083038185875af1925050503d80600081146103f5576040519150601f19603f3d011682016040523d82523d6000602084013e6103fa565b606091505b505090508061043e576040517f08c379a000000000000000000000000000000000000000000000000000000000815260040161043590610daf565b60405180910390fd5b5050565b60036020528160005260406000206020528060005260406000206000915091509054906101000a900460ff1681565b60008054906101000a900473ffffffffffffffffffffffffffffffffffffffff1673ffffffffffffffffffffffffffffffffffffffff163373ffffffffffffffffffffffffffffffffffffffff16146104c957600080fd5b8060028190555050565b60008054906101000a900473ffffffffffffffffffffffffffffffffffffffff1673ffffffffffffffffffffffffffffffffffffffff163373ffffffffffffffffffffffffffffffffffffffff161461052b57600080fd5b60001515600460003373ffffffffffffffffffffffffffffffffffffffff1673ffffffffffffffffffffffffffffffffffffffff168152602001908152602001600020600083815260200190815260200160002060009054906101000a900460ff161515146105cf576040517f08c379a00000000000000000000000000000000000000000000000000000000081526004016105c690610e1b565b60405180910390fd5b6001600460003373ffffffffffffffffffffffffffffffffffffffff1673ffffffffffffffffffffffffffffffffffffffff168152602001908152602001600020600083815260200190815260200160002060006101000a81548160ff0219169083151502179055506000600160009054906101000a900473ffffffffffffffffffffffffffffffffffffffff1690508073ffffffffffffffffffffffffffffffffffffffff166323b872dd60008054906101000a900473ffffffffffffffffffffffffffffffffffffffff1686866040518463ffffffff1660e01b81526004016106bc93929190610e3b565b6020604051808303816000875af11580156106db573d6000803e3d6000fd5b505050506040513d601f19601f820116820180604052508101906106ff9190610e9e565b5060018081111561071357610712610ecb565b5b7f27757542a5e1b9e8cef80f584e094d4eb63b9802f355c61b3640b71b618d5c8e868686428760405161074a959493929190610efa565b60405180910390a25050505050565b60025434101561079e576040517f08c379a000000000000000000000000000000000000000000000000000000000815260040161079590610f99565b60405180910390fd5b60001515600360003373ffffffffffffffffffffffffffffffffffffffff1673ffffffffffffffffffffffffffffffffffffffff168152602001908152602001600020600083815260200190815260200160002060009054906101000a900460ff16151514610842576040517f08c379a000000000000000000000000000000000000000000000000000000000815260040161083990610e1b565b60405180910390fd5b6001600360003373ffffffffffffffffffffffffffffffffffffffff1673ffffffffffffffffffffffffffffffffffffffff168152602001908152602001600020600083815260200190815260200160002060006101000a81548160ff0219169083151502179055506000600160009054906101000a900473ffffffffffffffffffffffffffffffffffffffff1690508073ffffffffffffffffffffffffffffffffffffffff166323b872dd3360008054906101000a900473ffffffffffffffffffffffffffffffffffffffff16866040518463ffffffff1660e01b815260040161092f93929190610e3b565b6020604051808303816000875af115801561094e573d6000803e3d6000fd5b505050506040513d601f19601f820116820180604052508101906109729190610e9e565b506000600181111561098757610986610ecb565b5b7f27757542a5e1b9e8cef80f584e094d4eb63b9802f355c61b3640b71b618d5c8e33868642876040516109be959493929190610efa565b60405180910390a250505050565b60008054906101000a900473ffffffffffffffffffffffffffffffffffffffff1681565b6000600254905090565b60046020528160005260406000206020528060005260406000206000915091509054906101000a900460ff1681565b600080fd5b600073ffffffffffffffffffffffffffffffffffffffff82169050919050565b6000610a5982610a2e565b9050919050565b610a6981610a4e565b8114610a7457600080fd5b50565b600081359050610a8681610a60565b92915050565b600060208284031215610aa257610aa1610a29565b5b6000610ab084828501610a77565b91505092915050565b6000819050919050565b610acc81610ab9565b8114610ad757600080fd5b50565b600081359050610ae981610ac3565b92915050565b60008060408385031215610b0657610b05610a29565b5b6000610b1485828601610a77565b9250506020610b2585828601610ada565b9150509250929050565b60008115159050919050565b610b4481610b2f565b82525050565b6000602082019050610b5f6000830184610b3b565b92915050565b600060208284031215610b7b57610b7a610a29565b5b6000610b8984828501610ada565b91505092915050565b60008060008060808587031215610bac57610bab610a29565b5b6000610bba87828801610a77565b9450506020610bcb87828801610a77565b9350506040610bdc87828801610ada565b9250506060610bed87828801610ada565b91505092959194509250565b600080600060608486031215610c1257610c11610a29565b5b6000610c2086828701610a77565b9350506020610c3186828701610ada565b9250506040610c4286828701610ada565b9150509250925092565b610c5581610a4e565b82525050565b6000602082019050610c706000830184610c4c565b92915050565b610c7f81610ab9565b82525050565b6000602082019050610c9a6000830184610c76565b92915050565b600082825260208201905092915050565b7f4f776e65722063616e206e6f74206265206e756c6c2e00000000000000000000600082015250565b6000610ce7601683610ca0565b9150610cf282610cb1565b602082019050919050565b60006020820190508181036000830152610d1681610cda565b9050919050565b600081905092915050565b50565b6000610d38600083610d1d565b9150610d4382610d28565b600082019050919050565b6000610d5982610d2b565b9150819050919050565b7f4661696c656420746f2073656e642062616c616e636500000000000000000000600082015250565b6000610d99601683610ca0565b9150610da482610d63565b602082019050919050565b60006020820190508181036000830152610dc881610d8c565b9050919050565b7f7472616e7366657220616c72656164792070726f636573736564000000000000600082015250565b6000610e05601a83610ca0565b9150610e1082610dcf565b602082019050919050565b60006020820190508181036000830152610e3481610df8565b9050919050565b6000606082019050610e506000830186610c4c565b610e5d6020830185610c4c565b610e6a6040830184610c76565b949350505050565b610e7b81610b2f565b8114610e8657600080fd5b50565b600081519050610e9881610e72565b92915050565b600060208284031215610eb457610eb3610a29565b5b6000610ec284828501610e89565b91505092915050565b7f4e487b7100000000000000000000000000000000000000000000000000000000600052602160045260246000fd5b600060a082019050610f0f6000830188610c4c565b610f1c6020830187610c4c565b610f296040830186610c76565b610f366060830185610c76565b610f436080830184610c76565b9695505050505050565b7f496e73756666696369656e74206665652e000000000000000000000000000000600082015250565b6000610f83601183610ca0565b9150610f8e82610f4d565b602082019050919050565b60006020820190508181036000830152610fb281610f76565b905091905056fea26469706673582212203ca2ecd04fbe144422985878017c6365e47740f4309a3ed57ed87e9a8cf6383164736f6c634300080b0033",
  "immutableReferences": {},
  "source": "pragma solidity ^0.8.0;\r\n\r\nimport '@openzeppelin/contracts/token/ERC20/IERC20.sol';\r\n\r\ncontract Bridge {\r\n  address public owner;\r\n  address private tokenAddress;\r\n  uint private crossFee = 1; // in gwei\r\n\r\n  mapping(address => mapping(uint => bool)) public sendNonces;\r\n  mapping(address => mapping(uint => bool)) public recvNonces;\r\n\r\n  enum Step { Send, Recv }\r\n  event Transfer(\r\n    address from,\r\n    address to,\r\n    uint amount,\r\n    uint date,\r\n    uint nonce,\r\n    Step indexed step\r\n  );\r\n\r\n  modifier onlyOwner() {\r\n    require (msg.sender == owner);\r\n    _;\r\n  }\r\n\r\n  constructor(uint crossFee_, address tokenAddress_) {\r\n    owner = msg.sender;\r\n    crossFee = crossFee_;\r\n    tokenAddress = tokenAddress_;\r\n  }\r\n\r\n  // transfer from msg.sender to contract\r\n  function crossSend(\r\n    address recipient,\r\n    uint tokenAmount,\r\n    uint nonce) external payable {\r\n    // check fee\r\n    require(msg.value >= crossFee, 'Insufficient fee.');\r\n    require(sendNonces[msg.sender][nonce] == false, 'transfer already processed');\r\n\r\n    sendNonces[msg.sender][nonce] = true;\r\n\r\n    IERC20 token = IERC20(tokenAddress);\r\n    token.transferFrom(msg.sender, owner, tokenAmount);\r\n\r\n    emit Transfer(\r\n      msg.sender,\r\n      recipient,\r\n      tokenAmount,\r\n      block.timestamp,\r\n      nonce,\r\n      Step.Send\r\n    );\r\n  }\r\n\r\n  // transfer from contract to recipient\r\n  function crossRecv(\r\n    address sender,\r\n    address recipient, \r\n    uint tokenAmount,\r\n    uint nonce) external onlyOwner {\r\n    require(recvNonces[msg.sender][nonce] == false, 'transfer already processed');\r\n    recvNonces[msg.sender][nonce] = true;\r\n\r\n    IERC20 token = IERC20(tokenAddress);\r\n    token.transferFrom(owner, recipient, tokenAmount);\r\n\r\n    emit Transfer(\r\n      sender,\r\n      recipient,\r\n      tokenAmount,\r\n      block.timestamp,\r\n      nonce,\r\n      Step.Recv\r\n    );\r\n  }\r\n\r\n  // withdraw from contract to owner\r\n  function withdraw() external onlyOwner {\r\n    // get the amount of Ether stored in this contract\r\n    uint amount = address(this).balance;\r\n\r\n    // send all Ether to owner\r\n    // Owner can receive Ether since the address of owner is payable\r\n    (bool success, ) = payable(owner).call{value: amount}(\"\");\r\n    require(success, \"Failed to send balance\");\r\n  }\r\n\r\n  // set fee\r\n  function setFee(uint fee) external onlyOwner {\r\n    crossFee = fee;\r\n  }\r\n\r\n  // get fee\r\n  function getFee() external view returns (uint) {\r\n    return crossFee;\r\n  }\r\n\r\n  // set owner\r\n  function setOwner(address owner_) external onlyOwner {\r\n    require(owner_ != address(0), 'Owner can not be null.');\r\n    owner = owner_;\r\n  }\r\n}\r\n",
  "sourcePath": "E:\\work\\Freelancer2\\blockchain\\rocky-bridge\\contract\\contracts\\Bridge.sol",
  "compiler": {
    "name": "solc",
    "version": "0.8.11+commit.d7f03943.Emscripten.clang"
  },
  "schemaVersion": "3.4.3",
  "updatedAt": "2022-01-10T03:36:03.638Z",
  "networkType": "ethereum",
  "devdoc": {
    "kind": "dev",
    "methods": {},
    "version": 1
  },
  "userdoc": {
    "kind": "user",
    "methods": {},
    "version": 1
  }
}